:020000040000FA
:0400000043EF0BF0CF
:1012B900010101C58AC5881200C5867DEC09F012B5
:1012C90000C5827DEC09F01200C5807DEC09F012A1
:1012D90000C5847DEC09F0120061EC09F05EEC09AF
:1012E900F0C9501200016E01C0C9FF7DEC09F0126E
:1012F900009EA682EF09F084EF09F07DEF09F09EC8
:101309009612000F0EC16E1E0E936EF19E8150E073
:1013190009816E120025EC0CF0BE0E036E046AC141
:101329000E056E0DEC0BF0120094869488280EC6FB
:101339006E310EC86EC79CC78E9E96A19612000983
:101349006E000E016E08504CEC0AF0010E016E0998
:10135900504CEC0AF01200016E9EA8B6EF09F0B8E5
:10136900EF09F0B1EF09F09E9801C0ADFF1200003E
:101379000E1CEC0AF0046E04507F0B046E04C002CC
:10138900F0000EC9EC09F01200036E69EC09F0D007
:101399000E77EC09F0035077EC09F0025077EC096D
:1013A900F06DEC09F01200B0EC0CF086EC09F0E7F6
:1013B900EC09F0F7EC09F099EC09F0BCEC09F00044
:1013C9000E586E1200C08EC08AC098C096C090C0D8
:1013D90082C094C292C19AC198000EC46E000EC315
:1013E9006EC2801200948E949CAC9CAC8AAC98AC72
:1013F90096AC84AB8EAB9CAB88B896810EAF6E9ED3
:10140900989E9A1200026E69EC09F0A00E77EC0919
:10141900F0025077EC09F065EC09F0A10E77EC09C0
:10142900F071EC09F0036E6DEC09F0035012000243
:101439006E69EC09F0D00E77EC09F0025077EC09EF
:10144900F065EC09F0D10E77EC09F071EC09F003C5
:101459006E6DEC09F0035012003DEF0AF002C0F680
:10146900FF03C0F7FF0800F550B0EC09F0024A038A
:101479002A02C0F6FF03C0F7FF0800F5500009D89B
:10148900A449EF0AF04BEF0AF033EF0AF012000219
:101499006E01B052EF0AF055EF0AF0828256EF0A58
:1014A900F0829202C083FF82848294958E82808228
:1014B900928284829483BE64EF0AF066EF0AF05D3B
:1014C900EF0AF08290959E12000B6E69EC09F0A06C
:1014D9000E77EC09F00B5077EC09F0085077EC091E
:1014E900F06DEC09F00B0E0A6EB80E096E0906D8FC
:1014F900A00A06092806E10A28D8A486EF0AF08876
:10150900EF0AF07BEF0AF01200076E07C003F0D86C
:10151900900336D8900336C250C30B0310C26EC273
:1015290082C2B29AEF0AF09CEF0AF095EF0AF0C373
:1015390050C4CF03F0046A03C004F0036A03100522
:101549006E0450066E05C001F006C002F012005686
:10155900696577206C6F6700000000000000004398
:101569006C656172206C6F67000000000000004428
:101579006F776E6C6F6164206C6F670000000053B9
:1015890065742074696D6500000000000000004F5B
:101599004E00474E00473100473200473300473479
:1015A90000473500475200435F0000000003500424
:1015B90010D8B4E2EF0AF0E4EF0AF008EF0BF001FB
:1015C9000E056EECEF0AF0D89003360436052A04AE
:1015D900AEF1EF0AF0F3EF0AF0E8EF0AF003500179
:1015E9005C04500258D8A0FCEF0AF0FEEF0AF002A2
:1015F900EF0BF00350015E0450025AD890043203F5
:1016090032052EF3EF0AF001C001F002C002F01218
:1016190000000E016E05504CEC0AF02AEF0BF001A8
:101629000E016E03C0F6FF04C0F7FFF86A050EF756
:101639006403D00800F55005D0F6CFE9FFF7CFEAEB
:10164900FFEF504CEC0AF0034A042A03C0F6FF04EA
:10165900C0F7FFF86A050EF76403D00800F55005D6
:10166900D0F6CFE9FFF7CFEAFFEF500009D8A44041
:10167900EF0BF042EF0BF014EF0BF01200580EF6DF
:101689006E150EF76E000EF86E00EE60F010EE5E4D
:10169900F00900F5CFEEFFE550E150FAE1B90EF699
:1016A9006E120EF76E000EF86E0900F5CF59F009AB
:1016B90000F5CF5AF00900F5CF5BF001EE00F0A07C
:1016C9000EEE6AE806FDE100EEBEF0090EEE6AE8EC
:1016D90006FDE100EE3CF01D0EEE6AE806FDE100B4
:1016E9000EF86E000167EF0CF0390E036E2F0E0431
:1016F9006E800E056E0DEC0BF05B0E036E2F0E0463
:101709006EC00E056E0DEC0BF0010E4226000E4365
:101719002244224522F50E421808E14304441045AB
:1017290010D8A49AEF0BF09CEF0BF0AFEF0BF00081
:101739000E426E000E436E000E446E000E456E00A2
:101749000E536E000E526E000E016E010E4CEC0A25
:10175900F0010E586E1200000E066E000E056E03A3
:10176900500410D8B4BBEF0BF0BDEF0BF0E5EF0B55
:10177900F0010E076EC5EF0BF0D89003360436075B
:101789002A04AECAEF0BF0CCEF0BF0C1EF0BF0D887
:1017990090053606360350015C04500258D8A0D88B
:1017A900EF0BF0DAEF0BF0DFEF0BF00350015E0403
:1017B90050025A0580D89004320332072ECCEF0B21
:1017C900F005C001F006C002F01200016E0104D854
:1017D900A4F1EF0BF0F3EF0BF017EF0CF087EC0D22
:1017E900F04F6E4F28D8B4FCEF0BF0FEEF0BF00B67
:1017F900EF0CF05950D8B404EF0CF006EF0CF00BD5
:10180900EF0CF0000E596E4F5024EF0CF04F28D812
:10181900A411EF0CF013EF0CF023EF0CF0010E59AB
:101829006E23EF0CF00150D8A41DEF0CF01FEF0C44
:10183900F023EF0CF087EC0DF024EF0CF0FF0E1203
:1018490000020E1CEC0AF0466E010E1CEC0AF04771
:101859006E000E1CEC0AF0486E46AC36EF0CF03800
:10186900EF0CF044EF0CF046380F0B010B300F0072
:1018790001BE6F46500F0B300FBF6F4EEF0CF04695
:10188900380F0B030B300F0001BE6F46500F0B30A2
:101899000FBF6F3A0EC06F47380F0B0F0B300FC1D8
:1018A9006F47500F0B300FC26F3A0EC36F48380F96
:1018B9000B0F0B300FC46F48500F0B300FC56F0063
:1018C9000EC66F1200D8EC09F025EC0CF0010EEAF7
:1018D900EC0BF0576E89EF0CF066EC0FF069EF0C2A
:1018E900F00BEC0EF069EF0CF0EAEC10F069EF0C7C
:1018F900F099EC12F069EF0CF079EC0BF069EF0C50
:10190900F06BEC15F069EF0CF058503A6E3B6A3BFE
:1019190050000AD8B493EF0CF069EF0CF03A50007C
:101929000AD8B471EF0CF0010AD8B475EF0CF003C2
:101939000AD8B479EF0CF0010AD8B481EF0CF0079A
:101949000AD8B47DEF0CF0010AD8B485EF0CF06920
:10195900EF0CF000EF00F0000E956E9450F80B9428
:101969006E8290C30E036ECD0EE82EFED7032EFCB9
:10197900D70000000E016E330E4CEC0AF01B0E036B
:101989006E9E0EE82EFED7032EFCD700D0000E0166
:101999006E330E4CEC0AF0A60EE82EFED700D000EE
:1019A9000E016E330E4CEC0AF000D000D00000009E
:1019B9000E016E020E4CEC0AF0A60EE82EFED700C0
:1019C900D0000E016E380E4CEC0AF0A60EE82EFE81
:1019D900D700D0000E016E010E4CEC0AF0040E0384
:1019E9006E3E0EE82EFED7032EFCD7000E016E0CBC
:1019F9000E4CEC0AF0A60EE82EFED700D0120031EC
:101A0900343234386E3850D8A40DEF0DF00FEF0D85
:101A1900F019EF0DF0000E2F6E000E306E000E3132
:101A29006E000E326E86EF0DF02FC033F030C034E9
:101A3900F031C035F032C036F0200E29EF0DF0D864
:101A4900903632353234323332E82E24EF0DF0330A
:101A590050376E318EFF0E2F16FF0E3016FF0E31E6
:101A690016000E3216960E385E38BE40EF0DF03E67
:101A7900EF0DF056EF0DF03850800A970FD8B048A7
:101A8900EF0DF04AEF0DF04CEF0DF00FEF0DF0D820
:101A9900903232313230322F32383E4CEF0DF06E07
:101AA900EF0DF01F0E38645CEF0DF05EEF0DF06680
:101AB900EF0DF00FEF0DF0D8902F3630363136326A
:101AC9003638063850D8A46CEF0DF06EEF0DF06083
:101AD900EF0DF03750D8B474EF0DF076EF0DF07EBE
:101AE900EF0DF0321E311E301E2F6C000E302231E8
:101AF9002232222FC02FF030C030F031C031F03205
:101B0900C032F01200819A818C818E81B28FEF0DE3
:101B1900F091EF0DF094EF0DF0010E0AEF0EF08148
:101B2900B499EF0DF09BEF0DF09EEF0DF0040E0A46
:101B3900EF0EF081B6A3EF0DF0A5EF0DF0A8EF0DB4
:101B4900F0070E0AEF0EF081B8ADEF0DF0AFEF0D13
:101B5900F0B2EF0DF00A0E0AEF0EF0818A819C8136
:101B69008E81B2BAEF0DF0BCEF0DF0BFEF0DF002B0
:101B79000E0AEF0EF081B4C4EF0DF0C6EF0DF0C9F7
:101B8900EF0DF0050E0AEF0EF081B6CEEF0DF0D095
:101B9900EF0DF0D3EF0DF0080E0AEF0EF081B8D873
:101BA900EF0DF0DAEF0DF0DDEF0DF00B0E0AEF0E91
:101BB900F0818A818C819E819E81B2E6EF0DF0E8E9
:101BC900EF0DF0EBEF0DF0030E0AEF0EF081B4F01C
:101BD900EF0DF0F2EF0DF0F5EF0DF0060E0AEF0E36
:101BE900F081B6FAEF0DF0FCEF0DF0FFEF0DF00903
:101BF9000E0AEF0EF081B804EF0EF006EF0EF009B1
:101C0900EF0EF00C0E0AEF0EF0FF0E12005450D832
:101C1900A411EF0EF013EF0EF01FEF0EF0800E0877
:101C29006E2A0EA4EC09F0C00E086E200EA4EC0971
:101C3900F031EF0EF05404D8A425EF0EF027EF0E83
:101C4900F031EF0EF0C00E086E2A0EA4EC09F080F8
:101C59000E086E200EA4EC09F05650100DF35060DA
:101C69000F0A6E0AC003F0046A820E056E0DEC0BB2
:101C7900F05650100DF350700F0A6E0AC003F004AD
:101C89006AC20E056E0DEC0BF0020E5718D8A4505F
:101C9900EF0EF052EF0EF06EEF0EF05450D8A4583C
:101CA900EF0EF05AEF0EF05EEF0EF0000E546E6C70
:101CB900EF0EF0020E566064EF0EF066EF0EF06C58
:101CC900EF0EF0000E016E010E4CEC0AF0562A01DF
:101CD9000E546E5704D8A474EF0EF076EF0EF092FE
:101CE900EF0EF05404D8A47CEF0EF07EEF0EF082D4
:101CF900EF0EF0010E546E90EF0EF05650D8B488E6
:101D0900EF0EF08AEF0EF090EF0EF05606000E017E
:101D19006E010E4CEC0AF0000E546E0C0E5718D8DA
:101D2900A499EF0EF09BEF0EF0A2EF0EF0000E5803
:101D39006E000E016E010E4CEC0AF00B0E5718D80E
:101D4900A4A9EF0EF0ABEF0EF0B4EF0EF05650541D
:101D590024020F586E000E016E010E4CEC0AF012AF
:101D690000522A0A0E5264BCEF0EF0BEEF0EF0F9D3
:101D7900EF0EF00A0E526E000E106E0A0E116E0072
:101D89000E146E000E136E000E166E000E156E11F7
:101D99005007EC0AF0126E112A12C008F0105069AF
:101DA900EC0AF0102A154A162A16BEE5EF0EF016AF
:101DB9005009E10A0E155CD8A0E5EF0EF0E7EF0E29
:101DC900F0CCEF0EF0134A142A14BEF5EF0EF014FE
:101DD9005009E1090E135CD8A0F5EF0EF0F7EF0EEC
:101DE900F0C8EF0EF05A0E536E000E186E000E1763
:101DF9006E020E17181810D8B405EF0FF007EF0F81
:101E0900F01BEF0FF0050E17181810D8B40FEF0FCD
:101E1900F011EF0FF01BEF0FF00C501724D96EDA09
:101E29006ADF50086E535069EC0AF0532A174A18B2
:101E39002A18BE29EF0FF0185009E1080E175CD8CF
:101E4900A029EF0FF02BEF0FF0FDEF0EF055500327
:101E59000DF350A00FD96EDA6ADF50086E5350693E
:101E6900EC0AF0532A5550030DF350A10FD96EDA3D
:101E79006ADF50086E535069EC0AF0532A0EC0010C
:101E8900F00FC002F0000E046E0A0E036EB0EC0BE8
:101E9900F00150300F086E535069EC0AF0532A0EC6
:101EA900C001F00FC002F0000E046E0A0E036EB0FE
:101EB900EC0BF00150300F086E535069EC0AF053E7
:101EC9002A1200D20E036E2F0E046E800E056E0DBF
:101ED900EC0BF08FEC09F05550030DF350A00F39BE
:101EE9006E39C003F0046ACA0E056E0DEC0BF003DF
:101EF9000E5718D8A483EF0FF085EF0FF094EF0F6A
:101F0900F0080E556EBE0E0C6E5550030DF350A021
:101F19000F0D6E4DC00EF04EC00FF0B5EC0EF05720
:101F290004D8A49AEF0FF09CEF0FF0B4EF0FF0076D
:101F39000E5560A2EF0FF0A4EF0FF0C8EF0FF055A8
:101F49002ABE0E0C6E5550030DF350A00F0D6E4DA9
:101F5900C00EF04EC00FF0B5EC0EF0C8EF0FF00256
:101F69000E5718D8A4BBEF0FF0BDEF0FF0C8EF0F55
:101F7900F0010E5564C3EF0FF0C5EF0FF0C8EF0F76
:101F8900F05506A5EF0FF0AE0E1A6E470E1B6E2523
:101F99000E1C6E410E1D6E040E89EC0AF001C0087C
:101FA900F002C009F00A6A0B6A000EBFEC11F008D2
:101FB900C016F009C017F00AC018F00BC019F09E3E
:101FC900EC13F016C02FF017C030F018C031F0191B
:101FD900C032F004EC0DF02FC04DF030C04EF0CE01
:101FE9000E086E4DC001F04EC002F0000E046E0ADC
:101FF9000E036EB0EC0BF00150300FA4EC09F0CFDA
:102009000E086E4DC001F04EC002F0000E046E0ABB
:102019000E036EDBEC0AF00150300FA4EC09F00B53
:102029000E5718D8A41BEF10F01DEF10F025EF1074
:10203900F0010E586E5768000E016E010E4CEC0A45
:10204900F01200000E086E000E0A6E000E096EDB1B
:10205900EF10F0000E0C6E000E0B6E020E0B180C3A
:1020690010D8B43AEF10F03CEF10F046EF10F0053D
:102079000E0B180C10D8A444EF10F046EF10F063C3
:10208900EF10F009C004F00AC005F0043A053AF06F
:102099000E051604500F0B0512F00E0416000E045F
:1020A90024066E010E0520076E0B500624D96E0C0E
:1020B900500720DA6E3A0EDF6EB2EF10F0080E0B01
:1020C900180C10D8B46BEF10F06DEF10F077EF101B
:1020D900F00B0E0B180C10D8A475EF10F077EF1059
:1020E900F094EF10F009C004F00AC005F0043A05B5
:1020F9003AF00E051604500F0B0512F00E041600E7
:102109000E0424066E010E0520076E0B500624D915
:102119006E0C500720DA6E200EDF6EB2EF10F00958
:10212900C004F00AC005F0043A053AF00E05160499
:10213900500F0B0512F00E0416000E0424066E0152
:102149000E0520076E0B500624D96E0C500720DAB5
:102159006E085007EC0AF0DF6E082A0B4A0C2A0CAD
:102169005009E10E0E0B5CD8A0BDEF10F0BFEF10C7
:10217900F032EF10F009C004F00AC005F0043A0586
:102189003AF00E051604500F0B0512F00E04160056
:102199000E0424066E010E0520076E0B500624D985
:1021A9006E0C500720DA6EDF6A094A0A2A52500477
:1021B9006E056A0450095C05500A58D8A0E7EF106B
:1021C900F0E9EF10F02EEF10F012005250D8A4F001
:1021D900EF10F0F2EF10F02DEF11F0000E016E018B
:1021E9000E4CEC0AF0280E036E2F0E046E800E05BD
:1021F9006E0DEC0BF07D0E036E2F0E046EC00E05F6
:102209006E0DEC0BF0200E106EA10E116E070E1262
:102219006E000E136E1006000E115A125A135A1040
:10222900280AE1112808E1122806E11328D8A42078
:10223900EF11F022EF11F00FEF11F0010E586E01BE
:102249000E5B6E000E016E010E4CEC0AF0BEEF1132
:10225900F05A04D8A433EF11F035EF11F039EF112A
:10226900F026EC10F0000E5A6EE30E036E2F0E04EA
:102279006E800E056E0DEC0BF05704D8A447EF11D4
:10228900F049EF11F061EF11F04CBE54EF11F04C31
:102299005008E14B04D8A054EF11F056EF11F0614A
:1022A900EF11F04B06D8A04C06170E036E2F0E0443
:1022B9006EC00E056E0DEC0BF0020E5718D8A4680F
:1022C900EF11F06AEF11F089EF11F0FF0E52240DB2
:1022D9006E0E6AFF0E0E220D504B5C4C50800A0F99
:1022E9006E0E50800A0F58D8B07DEF11F07FEF11B4
:1022F900F089EF11F04B4A4C2A170E036E2F0E048A
:102309006EC00E056E0DEC0BF00C0E5718D8A4908C
:10231900EF11F092EF11F0A1EF11F0010E586E00DC
:102329000E016E010E4CEC0AF0000E4C6E000E4BC5
:102339006E010E5A6EBEEF11F0C00E086E4B503092
:102349000FA4EC09F04BC00DF04CC00EF00D3A0E85
:102359003AF00E0E160D500F0B0E12F00E0D160060
:102369000E0D24036E010E0E20046EC20E056E0DB5
:10237900EC0BF01200106E1050D8B4C6EF11F0C873
:10238900EF11F0EAEF11F00BBECFEF11F0CDEF1125
:10239900F0EAEF11F008C00CF009C00DF00AC00E08
:1023A900F00BC00FF00C1E0D1E0E1E0F1E0C2A0086
:1023B9000E0D220E220F220CC012F00DC013F00ECA
:1023C900C014F00FC015F0F2EF11F008C012F009B7
:1023D900C013F00AC014F00BC015F0085009100A18
:1023E900100B10D8A4FBEF11F0FDEF11F007EF125D
:1023F900F0000E086E000E096E000E0A6E000E0B3C
:102409006E98EF12F0960E116E11EF12F0112AD894
:10241900901532143213321232000E12140C6E005F
:102429000E13140D6E000E14140E6EFE0E15140FFD
:102439006E0C500D100E100F10D8A426EF12F028B4
:10244900EF12F00BEF12F036EF12F0112A010E1213
:1024590026000E132214221522D890153214321395
:10246900321232000E12140C6E000E13140D6E008F
:102479000E14140E6EFF0E15140F6E0C500D100E67
:10248900100F10D8A44BEF12F04DEF12F02AEF12F3
:10249900F055EF12F01106D890123613361436158E
:1024A9003614BE5AEF12F05CEF12F064EF12F0022C
:1024B9000E116062EF12F064EF12F04FEF12F0119B
:1024C900B069EF12F06BEF12F06CEF12F0149ED8B6
:1024D90090113211C00CF00D6A0E6A0F6A0CC00F10
:1024E900F00E6A0D6A0C6A0C5012120D5013120E7E
:1024F9005014120F5015121050D8B486EF12F088EC
:10250900EF12F090EF12F00BBE8FEF12F08DEF1279
:10251900F090EF12F0158E12C008F013C009F014F4
:10252900C00AF015C00BF01200000E1E6E000E1D41
:102539006E000E1C6E5250D8A4A5EF12F0A7EF1230
:10254900F0E0EF12F0280E036E2F0E046E800E05D8
:102559006E0DEC0BF08E0E036E2F0E046EC00E0581
:102569006E0DEC0BF0050E026E2F0E036E31EC0AA8
:10257900F00A0EB0EC09F00D0EB0EC09F0400E14A3
:102589006E420E156E0F0E166E000E176E140600B3
:102599000E155A165A175A14280AE1152808E11671
:1025A9002806E11728D8A4DCEF12F0DEEF12F0CBF1
:1025B900EF12F096EF13F0F40E026E2F0E036E3148
:1025C900EC0AF00A0EB0EC09F00D0EB0EC09F0E1DE
:1025D9000E026E2E0E036E31EC0AF00A0EB0EC09F3
:1025E900F00D0EB0EC09F059EF13F0000E206E005B
:1025F9000E1F6E1F50090FD96EDA6A1C5007EC0ABC
:10260900F0DF6E1C2A1F4A202A20BE15EF13F02086
:102619005009E10A0E1F5CD8A015EF13F017EF134C
:10262900F0FEEF12F01D50300FB0EC09F0240E024D
:102639006E2F0E036E31EC0AF00950B0EC09F00A66
:1026490050B0EC09F03A0EB0EC09F00B50B0EC09BF
:10265900F00C50B0EC09F03A0EB0EC09F00D50B0A6
:10266900EC09F00E50B0EC09F0210E026E2F0E03AA
:102679006E31EC0AF00F50B0EC09F01050B0EC09D3
:10268900F01B0E026E2F0E036E31EC0AF01150B0E2
:10269900EC09F01250B0EC09F00A0EB0EC09F00D9B
:1026A9000EB0EC09F01D4A1E2A5250066E076A0642
:1026B900501D5C1E50800A086E0750800A0858D8C1
:1026C900A069EF13F06BEF13F0FAEF12F09F0E030E
:1026D9006E2F0E046E800E056E0DEC0BF0B00E031E
:1026E9006E2F0E046EC00E056E0DEC0BF0400E1829
:1026F9006E420E196E0F0E1A6E000E1B6E18060032
:102709000E195A1A5A1B5A18280AE1192808E11AE7
:102719002806E11B28D8A494EF13F096EF13F08351
:10272900EF13F0010E586E000E016E010E4CEC0A0B
:10273900F012001950800B266E195019242D6E18AD
:10274900AEA9EF13F0ABEF13F0ACEF13F02D802D22
:1027590050D8B4B2EF13F0B4EF13F0C9EF13F02D62
:1027690028D8A4BAEF13F0BCEF13F0C4EF13F000AC
:102779000E166E000E176E000E186E000E196E18EA
:102789008E000E196ED1EF13F0000E166E000E17A3
:102799006E000E186E000E196E1D50800B261A1D44
:1027A900501D242E6E1CAEDCEF13F0DEEF13F0DFAC
:1027B900EF13F02E802E50D8B4E5EF13F0E7EF13A6
:1027C900F0FCEF13F02E28D8A4EDEF13F0EFEF1380
:1027D900F0F7EF13F0000E1A6E000E1B6E000E1CC0
:1027E9006E000E1D6E1C8E000E1D6E04EF14F0009F
:1027F9000E1A6E000E1B6E000E1C6E000E1D6E1A58
:10280900501B101C101D10D8A40DEF14F00FEF145D
:10281900F027EF14F0000E166E000E176E000E185A
:102829006E000E196E800E18127F0E19122650199D
:102839001216C016F017C017F018C018F019C019F1
:10284900F06AEF15F02D50D8A42DEF14F02FEF14E6
:10285900F039EF14F0000E166E000E176E000E1808
:102869006E000E196E6AEF15F02E502DC01EF01F66
:102879006A1E5E000E1F5A7F0E1E24276E000E1F51
:1028890020286E16C022F017C023F018C024F019B2
:10289900C025F0000E166E000E176E000E186E00A1
:1028A9000E196E000E296E000E2A6E000E2B6E0098
:1028B9000E2C6E000E2E6E9AEF14F02E50D8B468BE
:1028C900EF14F06AEF14F081EF14F0D89022362358
:1028D9003624362536D89016361736183619362C3A
:1028E900AE79EF14F07BEF14F07CEF14F01680D87A
:1028F9009029362A362B362C361A50225C1B502347
:10290900581C5024581D502558D8A08EEF14F0900B
:10291900EF14F099EF14F02C8C1A50225E1B5023FF
:102929005A1C50245A1D50255A2E2A190E2E64A0BD
:10293900EF14F0A2EF14F062EF14F02250231024E8
:10294900102510D8B4ABEF14F0ADEF14F0C5EF14A7
:10295900F02980C5EF14F0D89016361736183619B5
:10296900362CAEBAEF14F0BCEF14F0BDEF14F0162C
:1029790080D89029362A362B362C362706D8A02817
:102989000618AECAEF14F0CCEF14F0B0EF14F00053
:102999000E2E6E2CAED3EF14F0D5EF14F0F9EF1420
:1029A900F0FF0E29141E6EFF0E2A141F6EFF0E2B48
:1029B90014206E7F0E2C14216E1E501F1020102122
:1029C90010D8B4EAEF14F0ECEF14F0F0EF14F001C2
:1029D9000E2E6EF9EF14F016A0F5EF14F0F7EF14C0
:1029E900F0F9EF14F0ECEF14F02E50D8B4FFEF1417
:1029F900F001EF15F025EF15F0010E1626000E1760
:102A0900221822192219A00CEF15F00EEF15F02546
:102A1900EF15F016C01EF017C01FF018C020F019EE
:102A2900C021F02134213220321F321E321EC0163D
:102A3900F01FC017F020C018F021C019F0274A284C
:102A49002A28BE30EF15F0285008E12728D8A030F1
:102A5900EF15F032EF15F03DEF15F0000E286E2757
:102A690068000E166E000E176E000E186E000E1915
:102A79006E28BE4AEF15F0285006E12704D8B04861
:102A8900EF15F04AEF15F058EF15F0000E286E001B
:102A99000E276E000E166E000E176E000E186E00D1
:102AA9000E196E000E266E27C02DF02DA05FEF15B2
:102AB900F061EF15F064EF15F0188E65EF15F01859
:102AC9009ED8902D30196E1BEF14F012005050D87B
:102AD900A471EF15F073EF15F0A8EF15F0010E5082
:102AE9006E25EC0CF00001BE510A0DF3CF0AF0F48B
:102AF900CF0BF0BF510A26000E0B22F00E0A243C20
:102B09006EFD0E0B203D6EC1510A0DF3CF0AF0F494
:102B1900CF0BF0C2510A26000E0B22F00E0A243EFA
:102B29006EFD0E0B203F6EC4510A0DF3CF0AF0F46F
:102B3900CF0BF0C5510A26000E0B22F00E0A2440D5
:102B49006EFD0E0B20416E4A0E036E2F0E046E8031
:102B59000E056E0DEC0BF080EF16F04950020DF3E7
:102B6900503C0FD96EDA6ADE2A000EDD2293EF1689
:102B7900F0010E4924016E000E4A20026E000E0477
:102B89006E030E036EDBEC0AF001C049F002C04A85
:102B9900F093EF16F025EC0CF03CC001F03DC002BB
:102BA900F0000E046E0A0E036EDBEC0AF001C00A97
:102BB900F002C00BF03CC001F03DC002F0000E0471
:102BC9006E0A0E036EB0EC0BF00138F00B0A101010
:102BD9006E4650C00B1010466E46C002F0020EC978
:102BE900EC09F03EC001F03FC002F0000E046E0A8D
:102BF9000E036EDBEC0AF001C00AF002C00BF03ED6
:102C0900C001F03FC002F0000E046E0A0E036EB060
:102C1900EC0BF00138F00B0A10106E4750800B10C6
:102C290010476E47C002F0010EC9EC09F040C0011F
:102C3900F041C002F0000E046E0A0E036EDBEC0ACE
:102C4900F001C00AF002C00BF040C001F041C0021F
:102C5900F0000E046E0A0E036EB0EC0BF00138F0B2
:102C69000B0A10106E4850800B1010486E48C002B5
:102C7900F0000EC9EC09F0000E016E010E4CEC0AD1
:102C8900F06C0E036E2F0E046E800E056E0DEC0BAC
:102C9900F0C10E036E2F0E046EC00E056E0DEC0B07
:102CA900F0400E0C6E420E0D6E0F0E0E6E000E0FE2
:102CB9006E0C06000E0D5A0E5A0F5A0C280AE10D19
:102CC9002808E10E2806E10F28D8A46EEF16F07047
:102CD900EF16F05DEF16F0000E016E010E4CEC0AD6
:102CE900F0000E586E93EF16F0000E016E010E4CB7
:102CF900EC0AF075EF16F05750010AD8B4B2EF1587
:102D0900F0030AD8B4BDEF15F0090AD8B4CFEF150E
:102D1900F0070AD8B479EF16F093EF16F03D500991
:102D2900E1180E3C5CD8A09CEF16F09EEF16F0A2BD
:102D3900EF16F0000E3D6E000E3C6E3F5009E13C6F
:102D49000E3E5CD8A0ABEF16F0ADEF16F0B1EF1662
:102D5900F0000E3F6E000E3E6E415009E13C0E4000
:102D69005CD8A0BAEF16F0BCEF16F0C0EF16F00071
:102D79000E416E000E406E320E5160C6EF16F0C85D
:102D8900EF16F035EF17F0C10E086E3CC001F03DAB
:102D9900C002F0000E046E0A0E036EB0EC0BF001D7
:102DA90050300FA4EC09F0C20E086E3CC001F03D92
:102DB900C002F0000E046E0A0E036EDBEC0AF0018D
:102DC90050300FA4EC09F0C30E086E3A0EA4EC09BA
:102DD900F0C40E086E3EC001F03FC002F0000E04C0
:102DE9006E0A0E036EB0EC0BF00150300FA4EC0923
:102DF900F0C50E086E3EC001F03FC002F0000E049F
:102E09006E0A0E036EDBEC0AF00150300FA4EC09D8
:102E1900F0C60E086E3A0EA4EC09F0C70E086E4013
:102E2900C001F041C002F0000E046E0A0E036EB03C
:102E3900EC0BF00150300FA4EC09F0C80E086E40FD
:102E4900C001F041C002F0000E046E0A0E036EDBF1
:102E5900EC0AF00150300FA4EC09F0512A6FEF177A
:102E6900F049504A10D8A43CEF17F03EEF17F0484C
:102E7900EF17F0FB0E036E2F0E046EC10E056E0DDB
:102E8900EC0BF032EF17F049044A10D8A44FEF17B2
:102E9900F051EF17F05BEF17F0FB0E036E2F0E04E6
:102EA9006EC40E056E0DEC0BF032EF17F0020E49F1
:102EB900184A10D8A463EF17F065EF17F032EF172F
:102EC900F0FB0E036E2F0E046EC70E056E0DEC0B94
:102ED900F032EF17F012000023202020202054693F
:102EE9006D6520202020202020204576656E7420E5
:102EF9002020202020205370656564004E6F206CCF
:102F09006F677320617661696C61626C650020206E
:102F19002020202020202020202020202020004E9A
:102F29004F204C4F475320202020202020202000D4
:102F3900414C4C204C4F475320202020202020205A
:102F4900002048483A4D4D3A535320202020202054
:102F59002000434C4541524544203A2D2920202048
:102F690020200054696D65206368616E676564207F
:102F790020202000415641494C41424C45203A2DE0
:102F89002820202000544F20444F574E4C4F414495
:102F9900203A2D2820004C4F475320444F574E4C80
:102FA9004F414445442000535543434553534655E7
:102FB9004C4C59203A2D2900537563636573736628
:102FC900756C6C79203A2D2900202054494D4520F3
:102FD90020204745415220535000232054494D4554
:102FE90020202020204556205350004C6F67732025
:062FF9003A00FFFF00009A
:020000040020DA
:08000000FFFFFFFFFFFFFFFF00
:020000040030CA
:0E000000FF071F1FFF8285FF0FC00FE00F409C
:00000001FF
